{
  "_format": "hh-sol-artifact-1",
  "contractName": "Mundo",
  "sourceName": "contracts/Mundo.sol",
  "abi": [
    {
      "inputs": [],
      "stateMutability": "nonpayable",
      "type": "constructor"
    },
    {
      "anonymous": false,
      "inputs": [
        {
          "indexed": true,
          "internalType": "address",
          "name": "buyer",
          "type": "address"
        },
        {
          "indexed": false,
          "internalType": "uint256",
          "name": "orderId",
          "type": "uint256"
        },
        {
          "indexed": false,
          "internalType": "uint256",
          "name": "itemId",
          "type": "uint256"
        }
      ],
      "name": "Buy",
      "type": "event"
    },
    {
      "anonymous": false,
      "inputs": [
        {
          "indexed": false,
          "internalType": "string",
          "name": "name",
          "type": "string"
        },
        {
          "indexed": false,
          "internalType": "uint256",
          "name": "cost",
          "type": "uint256"
        },
        {
          "indexed": false,
          "internalType": "uint256",
          "name": "quantity",
          "type": "uint256"
        }
      ],
      "name": "List",
      "type": "event"
    },
    {
      "inputs": [
        {
          "internalType": "address",
          "name": "_tokenAddress",
          "type": "address"
        }
      ],
      "name": "addToken",
      "outputs": [],
      "stateMutability": "nonpayable",
      "type": "function"
    },
    {
      "inputs": [
        {
          "internalType": "uint256",
          "name": "_id",
          "type": "uint256"
        },
        {
          "internalType": "address",
          "name": "_tokenAddress",
          "type": "address"
        }
      ],
      "name": "buy",
      "outputs": [],
      "stateMutability": "nonpayable",
      "type": "function"
    },
    {
      "inputs": [
        {
          "internalType": "address",
          "name": "",
          "type": "address"
        }
      ],
      "name": "checkAllowedTokens",
      "outputs": [
        {
          "internalType": "bool",
          "name": "",
          "type": "bool"
        }
      ],
      "stateMutability": "view",
      "type": "function"
    },
    {
      "inputs": [],
      "name": "getAllMarketPlaceItems",
      "outputs": [
        {
          "components": [
            {
              "internalType": "uint256",
              "name": "id",
              "type": "uint256"
            },
            {
              "internalType": "string",
              "name": "name",
              "type": "string"
            },
            {
              "internalType": "string",
              "name": "category",
              "type": "string"
            },
            {
              "internalType": "string",
              "name": "image",
              "type": "string"
            },
            {
              "internalType": "uint256",
              "name": "cost",
              "type": "uint256"
            },
            {
              "internalType": "uint256",
              "name": "rating",
              "type": "uint256"
            },
            {
              "internalType": "uint256",
              "name": "stock",
              "type": "uint256"
            },
            {
              "internalType": "string",
              "name": "description",
              "type": "string"
            }
          ],
          "internalType": "struct Mundo.Item[]",
          "name": "item",
          "type": "tuple[]"
        }
      ],
      "stateMutability": "view",
      "type": "function"
    },
    {
      "inputs": [
        {
          "internalType": "address",
          "name": "user",
          "type": "address"
        }
      ],
      "name": "getAllOrders",
      "outputs": [
        {
          "components": [
            {
              "internalType": "uint256",
              "name": "time",
              "type": "uint256"
            },
            {
              "components": [
                {
                  "internalType": "uint256",
                  "name": "id",
                  "type": "uint256"
                },
                {
                  "internalType": "string",
                  "name": "name",
                  "type": "string"
                },
                {
                  "internalType": "string",
                  "name": "category",
                  "type": "string"
                },
                {
                  "internalType": "string",
                  "name": "image",
                  "type": "string"
                },
                {
                  "internalType": "uint256",
                  "name": "cost",
                  "type": "uint256"
                },
                {
                  "internalType": "uint256",
                  "name": "rating",
                  "type": "uint256"
                },
                {
                  "internalType": "uint256",
                  "name": "stock",
                  "type": "uint256"
                },
                {
                  "internalType": "string",
                  "name": "description",
                  "type": "string"
                }
              ],
              "internalType": "struct Mundo.Item",
              "name": "item",
              "type": "tuple"
            }
          ],
          "internalType": "struct Mundo.Order[]",
          "name": "userOrders",
          "type": "tuple[]"
        }
      ],
      "stateMutability": "view",
      "type": "function"
    },
    {
      "inputs": [
        {
          "internalType": "uint256",
          "name": "_itemId",
          "type": "uint256"
        }
      ],
      "name": "getItem",
      "outputs": [
        {
          "components": [
            {
              "internalType": "uint256",
              "name": "id",
              "type": "uint256"
            },
            {
              "internalType": "string",
              "name": "name",
              "type": "string"
            },
            {
              "internalType": "string",
              "name": "category",
              "type": "string"
            },
            {
              "internalType": "string",
              "name": "image",
              "type": "string"
            },
            {
              "internalType": "uint256",
              "name": "cost",
              "type": "uint256"
            },
            {
              "internalType": "uint256",
              "name": "rating",
              "type": "uint256"
            },
            {
              "internalType": "uint256",
              "name": "stock",
              "type": "uint256"
            },
            {
              "internalType": "string",
              "name": "description",
              "type": "string"
            }
          ],
          "internalType": "struct Mundo.Item",
          "name": "",
          "type": "tuple"
        }
      ],
      "stateMutability": "view",
      "type": "function"
    },
    {
      "inputs": [
        {
          "internalType": "address",
          "name": "user",
          "type": "address"
        },
        {
          "internalType": "uint256",
          "name": "orderId",
          "type": "uint256"
        }
      ],
      "name": "getOrder",
      "outputs": [
        {
          "components": [
            {
              "internalType": "uint256",
              "name": "time",
              "type": "uint256"
            },
            {
              "components": [
                {
                  "internalType": "uint256",
                  "name": "id",
                  "type": "uint256"
                },
                {
                  "internalType": "string",
                  "name": "name",
                  "type": "string"
                },
                {
                  "internalType": "string",
                  "name": "category",
                  "type": "string"
                },
                {
                  "internalType": "string",
                  "name": "image",
                  "type": "string"
                },
                {
                  "internalType": "uint256",
                  "name": "cost",
                  "type": "uint256"
                },
                {
                  "internalType": "uint256",
                  "name": "rating",
                  "type": "uint256"
                },
                {
                  "internalType": "uint256",
                  "name": "stock",
                  "type": "uint256"
                },
                {
                  "internalType": "string",
                  "name": "description",
                  "type": "string"
                }
              ],
              "internalType": "struct Mundo.Item",
              "name": "item",
              "type": "tuple"
            }
          ],
          "internalType": "struct Mundo.Order",
          "name": "",
          "type": "tuple"
        }
      ],
      "stateMutability": "view",
      "type": "function"
    },
    {
      "inputs": [
        {
          "internalType": "uint256",
          "name": "",
          "type": "uint256"
        }
      ],
      "name": "items",
      "outputs": [
        {
          "internalType": "uint256",
          "name": "id",
          "type": "uint256"
        },
        {
          "internalType": "string",
          "name": "name",
          "type": "string"
        },
        {
          "internalType": "string",
          "name": "category",
          "type": "string"
        },
        {
          "internalType": "string",
          "name": "image",
          "type": "string"
        },
        {
          "internalType": "uint256",
          "name": "cost",
          "type": "uint256"
        },
        {
          "internalType": "uint256",
          "name": "rating",
          "type": "uint256"
        },
        {
          "internalType": "uint256",
          "name": "stock",
          "type": "uint256"
        },
        {
          "internalType": "string",
          "name": "description",
          "type": "string"
        }
      ],
      "stateMutability": "view",
      "type": "function"
    },
    {
      "inputs": [
        {
          "internalType": "string",
          "name": "_name",
          "type": "string"
        },
        {
          "internalType": "string",
          "name": "_category",
          "type": "string"
        },
        {
          "internalType": "string",
          "name": "_image",
          "type": "string"
        },
        {
          "internalType": "uint256",
          "name": "_cost",
          "type": "uint256"
        },
        {
          "internalType": "uint256",
          "name": "_rating",
          "type": "uint256"
        },
        {
          "internalType": "uint256",
          "name": "_stock",
          "type": "uint256"
        },
        {
          "internalType": "string",
          "name": "_description",
          "type": "string"
        }
      ],
      "name": "list",
      "outputs": [],
      "stateMutability": "nonpayable",
      "type": "function"
    },
    {
      "inputs": [
        {
          "internalType": "address",
          "name": "",
          "type": "address"
        }
      ],
      "name": "orderCount",
      "outputs": [
        {
          "internalType": "uint256",
          "name": "",
          "type": "uint256"
        }
      ],
      "stateMutability": "view",
      "type": "function"
    },
    {
      "inputs": [
        {
          "internalType": "address",
          "name": "",
          "type": "address"
        },
        {
          "internalType": "uint256",
          "name": "",
          "type": "uint256"
        }
      ],
      "name": "orders",
      "outputs": [
        {
          "internalType": "uint256",
          "name": "time",
          "type": "uint256"
        },
        {
          "components": [
            {
              "internalType": "uint256",
              "name": "id",
              "type": "uint256"
            },
            {
              "internalType": "string",
              "name": "name",
              "type": "string"
            },
            {
              "internalType": "string",
              "name": "category",
              "type": "string"
            },
            {
              "internalType": "string",
              "name": "image",
              "type": "string"
            },
            {
              "internalType": "uint256",
              "name": "cost",
              "type": "uint256"
            },
            {
              "internalType": "uint256",
              "name": "rating",
              "type": "uint256"
            },
            {
              "internalType": "uint256",
              "name": "stock",
              "type": "uint256"
            },
            {
              "internalType": "string",
              "name": "description",
              "type": "string"
            }
          ],
          "internalType": "struct Mundo.Item",
          "name": "item",
          "type": "tuple"
        }
      ],
      "stateMutability": "view",
      "type": "function"
    },
    {
      "inputs": [],
      "name": "owner",
      "outputs": [
        {
          "internalType": "address",
          "name": "",
          "type": "address"
        }
      ],
      "stateMutability": "view",
      "type": "function"
    }
  ],
  "bytecode": "0x608060405234801561001057600080fd5b50600080546001600160a01b031916331790556122c3806100326000396000f3fe608060405234801561001057600080fd5b50600436106100d45760003560e01c80637deb602511610081578063bfb231d21161005b578063bfb231d214610208578063d48bfca71461022f578063edb258411461024257600080fd5b80637deb6025146101aa5780638da5cb5b146101bd578063b5fec1ff146101e857600080fd5b80634b50c6fa116100b25780634b50c6fa14610146578063713d856b1461015b578063793b8c6d1461018957600080fd5b8063058d7448146100d95780631724e4f0146101115780633129e77314610126575b600080fd5b6100fc6100e7366004611c5b565b60026020526000908152604090205460ff1681565b60405190151581526020015b60405180910390f35b61012461011f366004611d20565b610262565b005b610139610134366004611dea565b6103f0565b6040516101089190611ede565b61014e6106ce565b6040516101089190611ef1565b61017b610169366004611c5b565b60056020526000908152604090205481565b604051908152602001610108565b61019c610197366004611f55565b610a2c565b604051610108929190611f7f565b6101246101b8366004611fa0565b610cd8565b6000546101d0906001600160a01b031681565b6040516001600160a01b039091168152602001610108565b6101fb6101f6366004611c5b565b611251565b6040516101089190611feb565b61021b610216366004611dea565b6115c5565b604051610108989796959493929190612042565b61012461023d366004611c5b565b611826565b610255610250366004611f55565b611917565b60405161010891906120b9565b6000546001600160a01b031633146102cb5760405162461bcd60e51b815260206004820152602160248201527f4f6e6c79206f776e65722063616e2063616c6c20746869732066756e6374696f6044820152603760f91b60648201526084015b60405180910390fd5b60018054604080516101008101825282815260208082018c81528284018c9052606083018b9052608083018a905260a0830189905260c0830188905260e0830187905260008581526003909252929020815181559151929390928392918201906103359082612157565b506040820151600282019061034a9082612157565b506060820151600382019061035f9082612157565b506080820151600482015560a0820151600582015560c0820151600682015560e082015160078201906103929082612157565b505060018054915060006103a58361222d565b91905055507ffdbe2a012c10ec01592653978eaa09b5ca60b143a0e617505b2ebcbd911ec5b88987866040516103dd93929190612246565b60405180910390a1505050505050505050565b61043860405180610100016040528060008152602001606081526020016060815260200160608152602001600081526020016000815260200160008152602001606081525090565b600360008381526020019081526020016000206040518061010001604052908160008201548152602001600182018054610471906120cc565b80601f016020809104026020016040519081016040528092919081815260200182805461049d906120cc565b80156104ea5780601f106104bf576101008083540402835291602001916104ea565b820191906000526020600020905b8154815290600101906020018083116104cd57829003601f168201915b50505050508152602001600282018054610503906120cc565b80601f016020809104026020016040519081016040528092919081815260200182805461052f906120cc565b801561057c5780601f106105515761010080835404028352916020019161057c565b820191906000526020600020905b81548152906001019060200180831161055f57829003601f168201915b50505050508152602001600382018054610595906120cc565b80601f01602080910402602001604051908101604052809291908181526020018280546105c1906120cc565b801561060e5780601f106105e35761010080835404028352916020019161060e565b820191906000526020600020905b8154815290600101906020018083116105f157829003601f168201915b50505050508152602001600482015481526020016005820154815260200160068201548152602001600782018054610645906120cc565b80601f0160208091040260200160405190810160405280929190818152602001828054610671906120cc565b80156106be5780601f10610693576101008083540402835291602001916106be565b820191906000526020600020905b8154815290600101906020018083116106a157829003601f168201915b5050505050815250509050919050565b606060015467ffffffffffffffff8111156106eb576106eb611c7d565b60405190808252806020026020018201604052801561076457816020015b61075160405180610100016040528060008152602001606081526020016060815260200160608152602001600081526020016000815260200160008152602001606081525090565b8152602001906001900390816107095790505b50905060005b600154811015610a28576003600082815260200190815260200160002060405180610100016040529081600082015481526020016001820180546107ad906120cc565b80601f01602080910402602001604051908101604052809291908181526020018280546107d9906120cc565b80156108265780601f106107fb57610100808354040283529160200191610826565b820191906000526020600020905b81548152906001019060200180831161080957829003601f168201915b5050505050815260200160028201805461083f906120cc565b80601f016020809104026020016040519081016040528092919081815260200182805461086b906120cc565b80156108b85780601f1061088d576101008083540402835291602001916108b8565b820191906000526020600020905b81548152906001019060200180831161089b57829003601f168201915b505050505081526020016003820180546108d1906120cc565b80601f01602080910402602001604051908101604052809291908181526020018280546108fd906120cc565b801561094a5780601f1061091f5761010080835404028352916020019161094a565b820191906000526020600020905b81548152906001019060200180831161092d57829003601f168201915b50505050508152602001600482015481526020016005820154815260200160068201548152602001600782018054610981906120cc565b80601f01602080910402602001604051908101604052809291908181526020018280546109ad906120cc565b80156109fa5780601f106109cf576101008083540402835291602001916109fa565b820191906000526020600020905b8154815290600101906020018083116109dd57829003601f168201915b505050505081525050828281518110610a1557610a1561226b565b602090810291909101015260010161076a565b5090565b600460205281600052604060002060205280600052604060002060009150915050806000015490806001016040518061010001604052908160008201548152602001600182018054610a7d906120cc565b80601f0160208091040260200160405190810160405280929190818152602001828054610aa9906120cc565b8015610af65780601f10610acb57610100808354040283529160200191610af6565b820191906000526020600020905b815481529060010190602001808311610ad957829003601f168201915b50505050508152602001600282018054610b0f906120cc565b80601f0160208091040260200160405190810160405280929190818152602001828054610b3b906120cc565b8015610b885780601f10610b5d57610100808354040283529160200191610b88565b820191906000526020600020905b815481529060010190602001808311610b6b57829003601f168201915b50505050508152602001600382018054610ba1906120cc565b80601f0160208091040260200160405190810160405280929190818152602001828054610bcd906120cc565b8015610c1a5780601f10610bef57610100808354040283529160200191610c1a565b820191906000526020600020905b815481529060010190602001808311610bfd57829003601f168201915b50505050508152602001600482015481526020016005820154815260200160068201548152602001600782018054610c51906120cc565b80601f0160208091040260200160405190810160405280929190818152602001828054610c7d906120cc565b8015610cca5780601f10610c9f57610100808354040283529160200191610cca565b820191906000526020600020905b815481529060010190602001808311610cad57829003601f168201915b505050505081525050905082565b6001600160a01b038116600090815260026020526040902054819060ff16610d425760405162461bcd60e51b815260206004820152601160248201527f746f6b656e206e6f7420616c6c6f77656400000000000000000000000000000060448201526064016102c2565b6000600360008581526020019081526020016000206040518061010001604052908160008201548152602001600182018054610d7d906120cc565b80601f0160208091040260200160405190810160405280929190818152602001828054610da9906120cc565b8015610df65780601f10610dcb57610100808354040283529160200191610df6565b820191906000526020600020905b815481529060010190602001808311610dd957829003601f168201915b50505050508152602001600282018054610e0f906120cc565b80601f0160208091040260200160405190810160405280929190818152602001828054610e3b906120cc565b8015610e885780601f10610e5d57610100808354040283529160200191610e88565b820191906000526020600020905b815481529060010190602001808311610e6b57829003601f168201915b50505050508152602001600382018054610ea1906120cc565b80601f0160208091040260200160405190810160405280929190818152602001828054610ecd906120cc565b8015610f1a5780601f10610eef57610100808354040283529160200191610f1a565b820191906000526020600020905b815481529060010190602001808311610efd57829003601f168201915b50505050508152602001600482015481526020016005820154815260200160068201548152602001600782018054610f51906120cc565b80601f0160208091040260200160405190810160405280929190818152602001828054610f7d906120cc565b8015610fca5780601f10610f9f57610100808354040283529160200191610fca565b820191906000526020600020905b815481529060010190602001808311610fad57829003601f168201915b505050505081525050905060008160c00151116110295760405162461bcd60e51b815260206004820152601160248201527f4974656d206f7574206f662073746f636b00000000000000000000000000000060448201526064016102c2565b60408051808201825242815260208082018490523360009081526005909152918220805491926110588361222d565b909155505033600090815260046020908152604080832060058352818420548452825290912082518155818301518051600183019081559281015184939060028401906110a59082612157565b50604082015160028201906110ba9082612157565b50606082015160038201906110cf9082612157565b506080820151600482015560a0820151600582015560c0820151600682015560e082015160078201906111029082612157565b50505060c0840151611118925060019150612281565b6000868152600360205260408082206006019290925554608084015191516323b872dd60e01b81523360048201526001600160a01b03918216602482015260448101929092528516906323b872dd906064016020604051808303816000875af1158015611189573d6000803e3d6000fd5b505050506040513d601f19601f820116820180604052508101906111ad9190612294565b6111f95760405162461bcd60e51b815260206004820152601060248201527f5472616e73666572206661696c65642e0000000000000000000000000000000060448201526064016102c2565b336000818152600560205260409081902054845191517f1cbc5ab135991bd2b6a4b034a04aa2aa086dac1371cb9b16b8b5e2ed6b036bed92611242928252602082015260400190565b60405180910390a25050505050565b6001600160a01b0381166000908152600560205260409020546060908067ffffffffffffffff81111561128657611286611c7d565b6040519080825280602002602001820160405280156112bf57816020015b6112ac611be0565b8152602001906001900390816112a45790505b50915060015b8181116115be576001600160a01b03841660009081526004602090815260408083208484528252918290208251808401845281548152835161010081019094526001820180548552600283018054929593948681019493908401919061132a906120cc565b80601f0160208091040260200160405190810160405280929190818152602001828054611356906120cc565b80156113a35780601f10611378576101008083540402835291602001916113a3565b820191906000526020600020905b81548152906001019060200180831161138657829003601f168201915b505050505081526020016002820180546113bc906120cc565b80601f01602080910402602001604051908101604052809291908181526020018280546113e8906120cc565b80156114355780601f1061140a57610100808354040283529160200191611435565b820191906000526020600020905b81548152906001019060200180831161141857829003601f168201915b5050505050815260200160038201805461144e906120cc565b80601f016020809104026020016040519081016040528092919081815260200182805461147a906120cc565b80156114c75780601f1061149c576101008083540402835291602001916114c7565b820191906000526020600020905b8154815290600101906020018083116114aa57829003601f168201915b505050505081526020016004820154815260200160058201548152602001600682015481526020016007820180546114fe906120cc565b80601f016020809104026020016040519081016040528092919081815260200182805461152a906120cc565b80156115775780601f1061154c57610100808354040283529160200191611577565b820191906000526020600020905b81548152906001019060200180831161155a57829003601f168201915b5050509190925250505090525083611590600184612281565b815181106115a0576115a061226b565b602002602001018190525080806115b69061222d565b9150506112c5565b5050919050565b600360205260009081526040902080546001820180549192916115e7906120cc565b80601f0160208091040260200160405190810160405280929190818152602001828054611613906120cc565b80156116605780601f1061163557610100808354040283529160200191611660565b820191906000526020600020905b81548152906001019060200180831161164357829003601f168201915b505050505090806002018054611675906120cc565b80601f01602080910402602001604051908101604052809291908181526020018280546116a1906120cc565b80156116ee5780601f106116c3576101008083540402835291602001916116ee565b820191906000526020600020905b8154815290600101906020018083116116d157829003601f168201915b505050505090806003018054611703906120cc565b80601f016020809104026020016040519081016040528092919081815260200182805461172f906120cc565b801561177c5780601f106117515761010080835404028352916020019161177c565b820191906000526020600020905b81548152906001019060200180831161175f57829003601f168201915b5050505050908060040154908060050154908060060154908060070180546117a3906120cc565b80601f01602080910402602001604051908101604052809291908181526020018280546117cf906120cc565b801561181c5780601f106117f15761010080835404028352916020019161181c565b820191906000526020600020905b8154815290600101906020018083116117ff57829003601f168201915b5050505050905088565b6000546001600160a01b0316331461188a5760405162461bcd60e51b815260206004820152602160248201527f4f6e6c79206f776e65722063616e2063616c6c20746869732066756e6374696f6044820152603760f91b60648201526084016102c2565b6001600160a01b03811660009081526002602052604090205460ff16156118f35760405162461bcd60e51b815260206004820152601460248201527f746f6b656e20616c7265616479206c697374656400000000000000000000000060448201526064016102c2565b6001600160a01b03166000908152600260205260409020805460ff19166001179055565b61191f611be0565b6001600160a01b03831660009081526004602090815260408083208584528252918290208251808401845281548152835161010081019094526001820180548552600283018054929593948681019493908401919061197d906120cc565b80601f01602080910402602001604051908101604052809291908181526020018280546119a9906120cc565b80156119f65780601f106119cb576101008083540402835291602001916119f6565b820191906000526020600020905b8154815290600101906020018083116119d957829003601f168201915b50505050508152602001600282018054611a0f906120cc565b80601f0160208091040260200160405190810160405280929190818152602001828054611a3b906120cc565b8015611a885780601f10611a5d57610100808354040283529160200191611a88565b820191906000526020600020905b815481529060010190602001808311611a6b57829003601f168201915b50505050508152602001600382018054611aa1906120cc565b80601f0160208091040260200160405190810160405280929190818152602001828054611acd906120cc565b8015611b1a5780601f10611aef57610100808354040283529160200191611b1a565b820191906000526020600020905b815481529060010190602001808311611afd57829003601f168201915b50505050508152602001600482015481526020016005820154815260200160068201548152602001600782018054611b51906120cc565b80601f0160208091040260200160405190810160405280929190818152602001828054611b7d906120cc565b8015611bca5780601f10611b9f57610100808354040283529160200191611bca565b820191906000526020600020905b815481529060010190602001808311611bad57829003601f168201915b5050505050815250508152505090505b92915050565b604051806040016040528060008152602001611c3a60405180610100016040528060008152602001606081526020016060815260200160608152602001600081526020016000815260200160008152602001606081525090565b905290565b80356001600160a01b0381168114611c5657600080fd5b919050565b600060208284031215611c6d57600080fd5b611c7682611c3f565b9392505050565b634e487b7160e01b600052604160045260246000fd5b600082601f830112611ca457600080fd5b813567ffffffffffffffff80821115611cbf57611cbf611c7d565b604051601f8301601f19908116603f01168101908282118183101715611ce757611ce7611c7d565b81604052838152866020858801011115611d0057600080fd5b836020870160208301376000602085830101528094505050505092915050565b600080600080600080600060e0888a031215611d3b57600080fd5b873567ffffffffffffffff80821115611d5357600080fd5b611d5f8b838c01611c93565b985060208a0135915080821115611d7557600080fd5b611d818b838c01611c93565b975060408a0135915080821115611d9757600080fd5b611da38b838c01611c93565b965060608a0135955060808a0135945060a08a0135935060c08a0135915080821115611dce57600080fd5b50611ddb8a828b01611c93565b91505092959891949750929550565b600060208284031215611dfc57600080fd5b5035919050565b6000815180845260005b81811015611e2957602081850181015186830182015201611e0d565b506000602082860101526020601f19601f83011685010191505092915050565b6000610100825184526020830151816020860152611e6982860182611e03565b91505060408301518482036040860152611e838282611e03565b91505060608301518482036060860152611e9d8282611e03565b9150506080830151608085015260a083015160a085015260c083015160c085015260e083015184820360e0860152611ed58282611e03565b95945050505050565b602081526000611c766020830184611e49565b600060208083016020845280855180835260408601915060408160051b87010192506020870160005b82811015611f4857603f19888603018452611f36858351611e49565b94509285019290850190600101611f1a565b5092979650505050505050565b60008060408385031215611f6857600080fd5b611f7183611c3f565b946020939093013593505050565b828152604060208201526000611f986040830184611e49565b949350505050565b60008060408385031215611fb357600080fd5b82359150611fc360208401611c3f565b90509250929050565b805182526000602082015160406020850152611f986040850182611e49565b600060208083016020845280855180835260408601915060408160051b87010192506020870160005b82811015611f4857603f19888603018452612030858351611fcc565b94509285019290850190600101612014565b60006101008a835280602084015261205c8184018b611e03565b90508281036040840152612070818a611e03565b905082810360608401526120848189611e03565b90508660808401528560a08401528460c084015282810360e08401526120aa8185611e03565b9b9a5050505050505050505050565b602081526000611c766020830184611fcc565b600181811c908216806120e057607f821691505b60208210810361210057634e487b7160e01b600052602260045260246000fd5b50919050565b601f821115612152576000816000526020600020601f850160051c8101602086101561212f5750805b601f850160051c820191505b8181101561214e5782815560010161213b565b5050505b505050565b815167ffffffffffffffff81111561217157612171611c7d565b6121858161217f84546120cc565b84612106565b602080601f8311600181146121ba57600084156121a25750858301515b600019600386901b1c1916600185901b17855561214e565b600085815260208120601f198616915b828110156121e9578886015182559484019460019091019084016121ca565b50858210156122075787850151600019600388901b60f8161c191681555b5050505050600190811b01905550565b634e487b7160e01b600052601160045260246000fd5b60006001820161223f5761223f612217565b5060010190565b6060815260006122596060830186611e03565b60208301949094525060400152919050565b634e487b7160e01b600052603260045260246000fd5b81810381811115611bda57611bda612217565b6000602082840312156122a657600080fd5b81518015158114611c7657600080fdfea164736f6c6343000818000a",
  "linkReferences": {},
  "deployedLinkReferences": {}
}